{
  "transactions": [
    {
      "hash": "0x4c003015d8fd712de794c4092590c320857ce0256f5c6a2b8c9eebbd09f97fcd",
      "transactionType": "CALL",
      "contractName": null,
      "contractAddress": "0x1c6d6663b2667fe282680a8c36e05fa73adb85f7",
      "function": "createEvent(string,string,uint256,uint256,address)",
      "arguments": [
        "Help Xiaoming Treatment",
        "Leukemia treatment funds, target 10,000 USDT",
        "10000000000000000000000",
        "1770607366",
        "0xF344DC8d71f752D87Ef1c8662aF671973010249f"
      ],
      "transaction": {
        "from": "0xf344dc8d71f752d87ef1c8662af671973010249f",
        "to": "0x1c6d6663b2667fe282680a8c36e05fa73adb85f7",
        "gas": "0x4394c",
        "value": "0x0",
        "input": "0xd03ded6300000000000000000000000000000000000000000000000000000000000000a000000000000000000000000000000000000000000000000000000000000000e000000000000000000000000000000000000000000000021e19e0c9bab24000000000000000000000000000000000000000000000000000000000000069895306000000000000000000000000f344dc8d71f752d87ef1c8662af671973010249f000000000000000000000000000000000000000000000000000000000000001748656c70205869616f6d696e672054726561746d656e74000000000000000000000000000000000000000000000000000000000000000000000000000000002c4c65756b656d69612074726561746d656e742066756e64732c207461726765742031302c30303020555344540000000000000000000000000000000000000000",
        "nonce": "0x1",
        "chainId": "0x66eee"
      },
      "additionalContracts": [],
      "isFixedGasLimit": false
    }
  ],
  "receipts": [
    {
      "status": "0x1",
      "cumulativeGasUsed": "0x334b2",
      "logs": [
        {
          "address": "0x1c6d6663b2667fe282680a8c36e05fa73adb85f7",
          "topics": [
            "0xee37bb5143a14810f72e86fce895be08e16090409d2e18f79b308995e39b73d4",
            "0x0000000000000000000000000000000000000000000000000000000000000001"
          ],
          "data": "0x000000000000000000000000000000000000000000000000000000000000004000000000000000000000000000000000000000000000021e19e0c9bab2400000000000000000000000000000000000000000000000000000000000000000001748656c70205869616f6d696e672054726561746d656e74000000000000000000",
          "blockHash": "0x5478c91d033217db6d513d1e8bc400aeef695c210618d0e5c32f8646c0696c72",
          "blockNumber": "0xdd65cb4",
          "blockTimestamp": "0x6961c615",
          "transactionHash": "0x4c003015d8fd712de794c4092590c320857ce0256f5c6a2b8c9eebbd09f97fcd",
          "transactionIndex": "0x1",
          "logIndex": "0x0",
          "removed": false
        }
      ],
      "logsBloom": "0x00000000000000000000000000000000000000000000000000000000000000000000000000000000000000000000000000000000000000000000000010040000000000000000000000020000000000000000000000040000000000000000000000000000000000000000000000000000000000000000000000000000000000000000000000000000000000000000040000000000000000000000000000000000000000000000000000000000000000000000001000000000000000000000000000000000000000000000000000000000000000000000000000000000000040000000000000000000000200000800000000000000000000000000000000000000",
      "type": "0x2",
      "transactionHash": "0x4c003015d8fd712de794c4092590c320857ce0256f5c6a2b8c9eebbd09f97fcd",
      "transactionIndex": "0x1",
      "blockHash": "0x5478c91d033217db6d513d1e8bc400aeef695c210618d0e5c32f8646c0696c72",
      "blockNumber": "0xdd65cb4",
      "gasUsed": "0x334b2",
      "effectiveGasPrice": "0x1312d00",
      "from": "0xf344dc8d71f752d87ef1c8662af671973010249f",
      "to": "0x1c6d6663b2667fe282680a8c36e05fa73adb85f7",
      "contractAddress": null,
      "gasUsedForL1": "0x0",
      "l1BlockNumber": "0x98c906",
      "timeboosted": false
    }
  ],
  "libraries": [],
  "pending": [],
  "returns": {
    "eventId": {
      "internal_type": "uint256",
      "value": "1"
    }
  },
  "timestamp": 1768015382596,
  "chain": 421614,
  "commit": "b6e9134"
}